{
  "contractName": "BalanceViewer",
  "abi": [
    {
      "inputs": [
        {
          "internalType": "address",
          "name": "_tokenContract",
          "type": "address"
        }
      ],
      "stateMutability": "nonpayable",
      "type": "constructor"
    },
    {
      "inputs": [],
      "name": "tokenContract",
      "outputs": [
        {
          "internalType": "address",
          "name": "",
          "type": "address"
        }
      ],
      "stateMutability": "view",
      "type": "function",
      "constant": true
    },
    {
      "inputs": [
        {
          "internalType": "address",
          "name": "owner",
          "type": "address"
        }
      ],
      "name": "balanceOf",
      "outputs": [
        {
          "internalType": "uint256",
          "name": "",
          "type": "uint256"
        }
      ],
      "stateMutability": "nonpayable",
      "type": "function"
    }
  ],
  "bytecode": "0x608060405234801561001057600080fd5b506040516105c23803806105c2833981810160405281019061003291906100db565b806000806101000a81548173ffffffffffffffffffffffffffffffffffffffff021916908373ffffffffffffffffffffffffffffffffffffffff16021790555050610108565b600080fd5b600073ffffffffffffffffffffffffffffffffffffffff82169050919050565b60006100a88261007d565b9050919050565b6100b88161009d565b81146100c357600080fd5b50565b6000815190506100d5816100af565b92915050565b6000602082840312156100f1576100f0610078565b5b60006100ff848285016100c6565b91505092915050565b6104ab806101176000396000f3fe608060405234801561001057600080fd5b50600436106100365760003560e01c806355a373d61461003b57806370a0823114610059575b600080fd5b610043610089565b604051610050919061026a565b60405180910390f35b610073600480360381019061006e91906102b6565b6100ad565b60405161008091906102fc565b60405180910390f35b60008054906101000a900473ffffffffffffffffffffffffffffffffffffffff1681565b60008060008060009054906101000a900473ffffffffffffffffffffffffffffffffffffffff1673ffffffffffffffffffffffffffffffffffffffff16846040516024016100fb919061026a565b6040516020818303038152906040527f70a08231000000000000000000000000000000000000000000000000000000007bffffffffffffffffffffffffffffffffffffffffffffffffffffffff19166020820180517bffffffffffffffffffffffffffffffffffffffffffffffffffffffff83818316178352505050506040516101859190610388565b6000604051808303816000865af19150503d80600081146101c2576040519150601f19603f3d011682016040523d82523d6000602084013e6101c7565b606091505b50915091508161020c576040517f08c379a0000000000000000000000000000000000000000000000000000000008152600401610203906103fc565b60405180910390fd5b808060200190518101906102209190610448565b92505050919050565b600073ffffffffffffffffffffffffffffffffffffffff82169050919050565b600061025482610229565b9050919050565b61026481610249565b82525050565b600060208201905061027f600083018461025b565b92915050565b600080fd5b61029381610249565b811461029e57600080fd5b50565b6000813590506102b08161028a565b92915050565b6000602082840312156102cc576102cb610285565b5b60006102da848285016102a1565b91505092915050565b6000819050919050565b6102f6816102e3565b82525050565b600060208201905061031160008301846102ed565b92915050565b600081519050919050565b600081905092915050565b60005b8381101561034b578082015181840152602081019050610330565b60008484015250505050565b600061036282610317565b61036c8185610322565b935061037c81856020860161032d565b80840191505092915050565b60006103948284610357565b915081905092915050565b600082825260208201905092915050565b7f546f6b656e2062616c616e63654f662063616c6c206661696c65640000000000600082015250565b60006103e6601b8361039f565b91506103f1826103b0565b602082019050919050565b60006020820190508181036000830152610415816103d9565b9050919050565b610425816102e3565b811461043057600080fd5b50565b6000815190506104428161041c565b92915050565b60006020828403121561045e5761045d610285565b5b600061046c84828501610433565b9150509291505056fea2646970667358221220c3810bff5137268c0b798796aa119adc0830ea1d35f56d99c533391d64f844ca64736f6c63430008130033",
  "immutableReferences": {},
  "source": "// SPDX-License-Identifier: MIT\r\npragma solidity ^0.8.19;\r\n\r\ncontract BalanceViewer {\r\n\r\n    // Address of the token contract you want to query\r\n    address public tokenContract;\r\n\r\n    constructor(address _tokenContract) {\r\n        tokenContract = _tokenContract;\r\n    }\r\n\r\n    function balanceOf(address owner) external returns (uint256) {\r\n        // Directly call the balanceOf function of the token contract\r\n        (bool success, bytes memory data) = tokenContract.call(abi.encodeWithSignature(\"balanceOf(address)\", owner));\r\n        require(success, \"Token balanceOf call failed\");\r\n        return abi.decode(data, (uint256));\r\n    }\r\n}\r\n",
  "sourcePath": "A:\\Projects\\WattSwap\\WattSwap_Primary\\contracts\\balanceOf.sol",
  "compiler": {
    "name": "solc",
    "version": "0.8.19+commit.7dd6d404.Emscripten.clang"
  },
  "schemaVersion": "3.4.16",
  "updatedAt": "2023-12-28T11:43:52.907Z",
  "networkType": "ethereum",
  "devdoc": {
    "kind": "dev",
    "methods": {},
    "version": 1
  },
  "userdoc": {
    "kind": "user",
    "methods": {},
    "version": 1
  }
}