{
  "contractName": "energyAvailability",
  "abi": [
    {
      "inputs": [
        {
          "internalType": "uint256",
          "name": "availablePower",
          "type": "uint256"
        },
        {
          "internalType": "uint256",
          "name": "amount",
          "type": "uint256"
        }
      ],
      "name": "isEnergyAvailable",
      "outputs": [
        {
          "internalType": "bool",
          "name": "",
          "type": "bool"
        }
      ],
      "stateMutability": "pure",
      "type": "function"
    }
  ],
  "bytecode": "0x608060405234801561001057600080fd5b50610155806100206000396000f3fe608060405234801561001057600080fd5b506004361061002b5760003560e01c8063abe7fa1c14610030575b600080fd5b61004a600480360381019061004591906100a9565b610060565b6040516100579190610104565b60405180910390f35b600081831015905092915050565b600080fd5b6000819050919050565b61008681610073565b811461009157600080fd5b50565b6000813590506100a38161007d565b92915050565b600080604083850312156100c0576100bf61006e565b5b60006100ce85828601610094565b92505060206100df85828601610094565b9150509250929050565b60008115159050919050565b6100fe816100e9565b82525050565b600060208201905061011960008301846100f5565b9291505056fea2646970667358221220c4ce91676a87ee8016d3b7cff72ffd8f50e0ac2790138218f66596b311b5319564736f6c63430008130033",
  "immutableReferences": {},
  "source": "// SPDX-License-Identifier: MIT\r\npragma solidity ^0.8.19;\r\ncontract energyAvailability{\r\n    function isEnergyAvailable(uint256 availablePower, uint256 amount) public pure returns (bool) {\r\n        return availablePower >= amount; // Use the provided value for validation\r\n    }\r\n}",
  "sourcePath": "A:\\Projects\\WattSwap\\WattSwap_Primary\\contracts\\energyAvailability.sol",
  "compiler": {
    "name": "solc",
    "version": "0.8.19+commit.7dd6d404.Emscripten.clang"
  },
  "schemaVersion": "3.4.16",
  "updatedAt": "2023-12-28T10:11:51.704Z",
  "devdoc": {
    "kind": "dev",
    "methods": {},
    "version": 1
  },
  "userdoc": {
    "kind": "user",
    "methods": {},
    "version": 1
  }
}