{
  "contractName": "TransferHelper",
  "abi": [
    {
      "inputs": [
        {
          "internalType": "address",
          "name": "tokenContract",
          "type": "address"
        },
        {
          "internalType": "address",
          "name": "sender",
          "type": "address"
        },
        {
          "internalType": "address",
          "name": "recipient",
          "type": "address"
        },
        {
          "internalType": "uint256",
          "name": "amount",
          "type": "uint256"
        }
      ],
      "name": "transferFrom",
      "outputs": [],
      "stateMutability": "nonpayable",
      "type": "function"
    }
  ],
  "bytecode": "0x608060405234801561001057600080fd5b506102c3806100206000396000f3fe608060405234801561001057600080fd5b506004361061002b5760003560e01c806315dacbea14610030575b600080fd5b61004a6004803603810190610045919061016c565b61004c565b005b8373ffffffffffffffffffffffffffffffffffffffff166323b872dd8484846040518463ffffffff1660e01b8152600401610089939291906101f1565b6020604051808303816000875af11580156100a8573d6000803e3d6000fd5b505050506040513d601f19601f820116820180604052508101906100cc9190610260565b5050505050565b600080fd5b600073ffffffffffffffffffffffffffffffffffffffff82169050919050565b6000610103826100d8565b9050919050565b610113816100f8565b811461011e57600080fd5b50565b6000813590506101308161010a565b92915050565b6000819050919050565b61014981610136565b811461015457600080fd5b50565b60008135905061016681610140565b92915050565b60008060008060808587031215610186576101856100d3565b5b600061019487828801610121565b94505060206101a587828801610121565b93505060406101b687828801610121565b92505060606101c787828801610157565b91505092959194509250565b6101dc816100f8565b82525050565b6101eb81610136565b82525050565b600060608201905061020660008301866101d3565b61021360208301856101d3565b61022060408301846101e2565b949350505050565b60008115159050919050565b61023d81610228565b811461024857600080fd5b50565b60008151905061025a81610234565b92915050565b600060208284031215610276576102756100d3565b5b60006102848482850161024b565b9150509291505056fea264697066735822122096cf5eb8112c6c180f7ec9bda52e0a8ae8a92cb24299cb448b3ef430169ad54d64736f6c63430008130033",
  "immutableReferences": {},
  "source": "// SPDX-License-Identifier: MIT\r\npragma solidity ^0.8.19;\r\nimport \"@openzeppelin/contracts/token/ERC20/IERC20.sol\";\r\n\r\ncontract TransferHelper {\r\n    function transferFrom(address tokenContract, address sender, address recipient, uint256 amount) external {\r\n        // Interact with the token contract to perform the transfer\r\n        IERC20(tokenContract).transferFrom(sender, recipient, amount);\r\n    }\r\n}\r\n",
  "sourcePath": "A:\\Projects\\WattSwap\\WattSwap_Primary\\contracts\\transferFrom.sol",
  "compiler": {
    "name": "solc",
    "version": "0.8.19+commit.7dd6d404.Emscripten.clang"
  },
  "schemaVersion": "3.4.16",
  "updatedAt": "2023-12-30T10:51:43.422Z",
  "networkType": "ethereum",
  "devdoc": {
    "kind": "dev",
    "methods": {},
    "version": 1
  },
  "userdoc": {
    "kind": "user",
    "methods": {},
    "version": 1
  }
}