{
  "contractName": "WattSwap",
  "abi": [
    {
      "inputs": [
        {
          "internalType": "address",
          "name": "_usdcAddress",
          "type": "address"
        }
      ],
      "stateMutability": "nonpayable",
      "type": "constructor"
    },
    {
      "anonymous": false,
      "inputs": [
        {
          "indexed": true,
          "internalType": "address",
          "name": "user",
          "type": "address"
        },
        {
          "indexed": false,
          "internalType": "uint256",
          "name": "amount",
          "type": "uint256"
        }
      ],
      "name": "EscrowDeposited",
      "type": "event"
    },
    {
      "anonymous": false,
      "inputs": [
        {
          "indexed": true,
          "internalType": "address",
          "name": "user",
          "type": "address"
        },
        {
          "indexed": false,
          "internalType": "uint256",
          "name": "amount",
          "type": "uint256"
        }
      ],
      "name": "EscrowWithdrawn",
      "type": "event"
    },
    {
      "anonymous": false,
      "inputs": [
        {
          "indexed": true,
          "internalType": "uint256",
          "name": "listingId",
          "type": "uint256"
        },
        {
          "indexed": true,
          "internalType": "address",
          "name": "seller",
          "type": "address"
        },
        {
          "indexed": false,
          "internalType": "uint256",
          "name": "quantity",
          "type": "uint256"
        },
        {
          "indexed": false,
          "internalType": "uint256",
          "name": "pricePerUnit",
          "type": "uint256"
        }
      ],
      "name": "ListingCreated",
      "type": "event"
    },
    {
      "anonymous": false,
      "inputs": [
        {
          "indexed": true,
          "internalType": "uint256",
          "name": "orderId",
          "type": "uint256"
        }
      ],
      "name": "OrderCancelled",
      "type": "event"
    },
    {
      "anonymous": false,
      "inputs": [
        {
          "indexed": true,
          "internalType": "uint256",
          "name": "orderId",
          "type": "uint256"
        },
        {
          "indexed": true,
          "internalType": "address",
          "name": "buyer",
          "type": "address"
        },
        {
          "indexed": true,
          "internalType": "address",
          "name": "seller",
          "type": "address"
        }
      ],
      "name": "OrderCompleted",
      "type": "event"
    },
    {
      "anonymous": false,
      "inputs": [
        {
          "indexed": true,
          "internalType": "uint256",
          "name": "orderId",
          "type": "uint256"
        },
        {
          "indexed": true,
          "internalType": "uint256",
          "name": "listingId",
          "type": "uint256"
        },
        {
          "indexed": true,
          "internalType": "address",
          "name": "buyer",
          "type": "address"
        },
        {
          "indexed": false,
          "internalType": "address",
          "name": "seller",
          "type": "address"
        },
        {
          "indexed": false,
          "internalType": "uint256",
          "name": "quantity",
          "type": "uint256"
        },
        {
          "indexed": false,
          "internalType": "uint256",
          "name": "totalPrice",
          "type": "uint256"
        }
      ],
      "name": "OrderPlaced",
      "type": "event"
    },
    {
      "anonymous": false,
      "inputs": [
        {
          "indexed": true,
          "internalType": "address",
          "name": "previousOwner",
          "type": "address"
        },
        {
          "indexed": true,
          "internalType": "address",
          "name": "newOwner",
          "type": "address"
        }
      ],
      "name": "OwnershipTransferred",
      "type": "event"
    },
    {
      "inputs": [
        {
          "internalType": "address",
          "name": "",
          "type": "address"
        }
      ],
      "name": "escrowAccounts",
      "outputs": [
        {
          "internalType": "uint256",
          "name": "balance",
          "type": "uint256"
        },
        {
          "internalType": "uint256",
          "name": "lockedAmount",
          "type": "uint256"
        }
      ],
      "stateMutability": "view",
      "type": "function",
      "constant": true
    },
    {
      "inputs": [],
      "name": "listingCounter",
      "outputs": [
        {
          "internalType": "uint256",
          "name": "",
          "type": "uint256"
        }
      ],
      "stateMutability": "view",
      "type": "function",
      "constant": true
    },
    {
      "inputs": [
        {
          "internalType": "uint256",
          "name": "",
          "type": "uint256"
        }
      ],
      "name": "listings",
      "outputs": [
        {
          "internalType": "address",
          "name": "seller",
          "type": "address"
        },
        {
          "internalType": "uint256",
          "name": "quantity",
          "type": "uint256"
        },
        {
          "internalType": "uint256",
          "name": "pricePerUnit",
          "type": "uint256"
        },
        {
          "internalType": "uint256",
          "name": "availableQuantity",
          "type": "uint256"
        },
        {
          "internalType": "bool",
          "name": "active",
          "type": "bool"
        },
        {
          "internalType": "string",
          "name": "location",
          "type": "string"
        },
        {
          "internalType": "uint256",
          "name": "timestamp",
          "type": "uint256"
        }
      ],
      "stateMutability": "view",
      "type": "function",
      "constant": true
    },
    {
      "inputs": [],
      "name": "orderCounter",
      "outputs": [
        {
          "internalType": "uint256",
          "name": "",
          "type": "uint256"
        }
      ],
      "stateMutability": "view",
      "type": "function",
      "constant": true
    },
    {
      "inputs": [
        {
          "internalType": "uint256",
          "name": "",
          "type": "uint256"
        }
      ],
      "name": "orders",
      "outputs": [
        {
          "internalType": "uint256",
          "name": "listingId",
          "type": "uint256"
        },
        {
          "internalType": "address",
          "name": "buyer",
          "type": "address"
        },
        {
          "internalType": "address",
          "name": "seller",
          "type": "address"
        },
        {
          "internalType": "uint256",
          "name": "quantity",
          "type": "uint256"
        },
        {
          "internalType": "uint256",
          "name": "totalPrice",
          "type": "uint256"
        },
        {
          "internalType": "uint8",
          "name": "status",
          "type": "uint8"
        },
        {
          "internalType": "uint256",
          "name": "timestamp",
          "type": "uint256"
        },
        {
          "internalType": "bool",
          "name": "buyerApproved",
          "type": "bool"
        },
        {
          "internalType": "bool",
          "name": "sellerApproved",
          "type": "bool"
        }
      ],
      "stateMutability": "view",
      "type": "function",
      "constant": true
    },
    {
      "inputs": [],
      "name": "owner",
      "outputs": [
        {
          "internalType": "address",
          "name": "",
          "type": "address"
        }
      ],
      "stateMutability": "view",
      "type": "function",
      "constant": true
    },
    {
      "inputs": [],
      "name": "platformFeeCollector",
      "outputs": [
        {
          "internalType": "address",
          "name": "",
          "type": "address"
        }
      ],
      "stateMutability": "view",
      "type": "function",
      "constant": true
    },
    {
      "inputs": [],
      "name": "platformFeePercentage",
      "outputs": [
        {
          "internalType": "uint256",
          "name": "",
          "type": "uint256"
        }
      ],
      "stateMutability": "view",
      "type": "function",
      "constant": true
    },
    {
      "inputs": [],
      "name": "renounceOwnership",
      "outputs": [],
      "stateMutability": "nonpayable",
      "type": "function"
    },
    {
      "inputs": [
        {
          "internalType": "address",
          "name": "newOwner",
          "type": "address"
        }
      ],
      "name": "transferOwnership",
      "outputs": [],
      "stateMutability": "nonpayable",
      "type": "function"
    },
    {
      "inputs": [],
      "name": "usdcToken",
      "outputs": [
        {
          "internalType": "contract IERC20",
          "name": "",
          "type": "address"
        }
      ],
      "stateMutability": "view",
      "type": "function",
      "constant": true
    },
    {
      "inputs": [
        {
          "internalType": "address",
          "name": "",
          "type": "address"
        },
        {
          "internalType": "uint256",
          "name": "",
          "type": "uint256"
        }
      ],
      "name": "userListings",
      "outputs": [
        {
          "internalType": "uint256",
          "name": "",
          "type": "uint256"
        }
      ],
      "stateMutability": "view",
      "type": "function",
      "constant": true
    },
    {
      "inputs": [
        {
          "internalType": "address",
          "name": "",
          "type": "address"
        },
        {
          "internalType": "uint256",
          "name": "",
          "type": "uint256"
        }
      ],
      "name": "userOrders",
      "outputs": [
        {
          "internalType": "uint256",
          "name": "",
          "type": "uint256"
        }
      ],
      "stateMutability": "view",
      "type": "function",
      "constant": true
    },
    {
      "inputs": [
        {
          "internalType": "uint256",
          "name": "amount",
          "type": "uint256"
        }
      ],
      "name": "depositToEscrow",
      "outputs": [],
      "stateMutability": "nonpayable",
      "type": "function"
    },
    {
      "inputs": [
        {
          "internalType": "uint256",
          "name": "amount",
          "type": "uint256"
        }
      ],
      "name": "withdrawFromEscrow",
      "outputs": [],
      "stateMutability": "nonpayable",
      "type": "function"
    },
    {
      "inputs": [
        {
          "internalType": "uint256",
          "name": "quantity",
          "type": "uint256"
        },
        {
          "internalType": "uint256",
          "name": "pricePerUnit",
          "type": "uint256"
        },
        {
          "internalType": "string",
          "name": "location",
          "type": "string"
        }
      ],
      "name": "createListing",
      "outputs": [
        {
          "internalType": "uint256",
          "name": "",
          "type": "uint256"
        }
      ],
      "stateMutability": "nonpayable",
      "type": "function"
    },
    {
      "inputs": [
        {
          "internalType": "uint256",
          "name": "listingId",
          "type": "uint256"
        },
        {
          "internalType": "uint256",
          "name": "newQuantity",
          "type": "uint256"
        },
        {
          "internalType": "uint256",
          "name": "newPrice",
          "type": "uint256"
        }
      ],
      "name": "updateListing",
      "outputs": [],
      "stateMutability": "nonpayable",
      "type": "function"
    },
    {
      "inputs": [
        {
          "internalType": "uint256",
          "name": "listingId",
          "type": "uint256"
        }
      ],
      "name": "deactivateListing",
      "outputs": [],
      "stateMutability": "nonpayable",
      "type": "function"
    },
    {
      "inputs": [
        {
          "internalType": "uint256",
          "name": "listingId",
          "type": "uint256"
        },
        {
          "internalType": "uint256",
          "name": "quantity",
          "type": "uint256"
        }
      ],
      "name": "placeOrder",
      "outputs": [
        {
          "internalType": "uint256",
          "name": "",
          "type": "uint256"
        }
      ],
      "stateMutability": "nonpayable",
      "type": "function"
    },
    {
      "inputs": [
        {
          "internalType": "uint256",
          "name": "orderId",
          "type": "uint256"
        }
      ],
      "name": "approveOrderByBuyer",
      "outputs": [],
      "stateMutability": "nonpayable",
      "type": "function"
    },
    {
      "inputs": [
        {
          "internalType": "uint256",
          "name": "orderId",
          "type": "uint256"
        }
      ],
      "name": "approveOrderBySeller",
      "outputs": [],
      "stateMutability": "nonpayable",
      "type": "function"
    },
    {
      "inputs": [
        {
          "internalType": "uint256",
          "name": "orderId",
          "type": "uint256"
        }
      ],
      "name": "cancelOrder",
      "outputs": [],
      "stateMutability": "nonpayable",
      "type": "function"
    },
    {
      "inputs": [
        {
          "internalType": "address",
          "name": "user",
          "type": "address"
        }
      ],
      "name": "getEscrowBalance",
      "outputs": [
        {
          "internalType": "uint256",
          "name": "available",
          "type": "uint256"
        },
        {
          "internalType": "uint256",
          "name": "locked",
          "type": "uint256"
        }
      ],
      "stateMutability": "view",
      "type": "function",
      "constant": true
    },
    {
      "inputs": [
        {
          "internalType": "uint256",
          "name": "listingId",
          "type": "uint256"
        }
      ],
      "name": "getListing",
      "outputs": [
        {
          "components": [
            {
              "internalType": "address",
              "name": "seller",
              "type": "address"
            },
            {
              "internalType": "uint256",
              "name": "quantity",
              "type": "uint256"
            },
            {
              "internalType": "uint256",
              "name": "pricePerUnit",
              "type": "uint256"
            },
            {
              "internalType": "uint256",
              "name": "availableQuantity",
              "type": "uint256"
            },
            {
              "internalType": "bool",
              "name": "active",
              "type": "bool"
            },
            {
              "internalType": "string",
              "name": "location",
              "type": "string"
            },
            {
              "internalType": "uint256",
              "name": "timestamp",
              "type": "uint256"
            }
          ],
          "internalType": "struct WattSwap.EnergyListing",
          "name": "",
          "type": "tuple"
        }
      ],
      "stateMutability": "view",
      "type": "function",
      "constant": true
    },
    {
      "inputs": [
        {
          "internalType": "uint256",
          "name": "orderId",
          "type": "uint256"
        }
      ],
      "name": "getOrder",
      "outputs": [
        {
          "components": [
            {
              "internalType": "uint256",
              "name": "listingId",
              "type": "uint256"
            },
            {
              "internalType": "address",
              "name": "buyer",
              "type": "address"
            },
            {
              "internalType": "address",
              "name": "seller",
              "type": "address"
            },
            {
              "internalType": "uint256",
              "name": "quantity",
              "type": "uint256"
            },
            {
              "internalType": "uint256",
              "name": "totalPrice",
              "type": "uint256"
            },
            {
              "internalType": "uint8",
              "name": "status",
              "type": "uint8"
            },
            {
              "internalType": "uint256",
              "name": "timestamp",
              "type": "uint256"
            },
            {
              "internalType": "bool",
              "name": "buyerApproved",
              "type": "bool"
            },
            {
              "internalType": "bool",
              "name": "sellerApproved",
              "type": "bool"
            }
          ],
          "internalType": "struct WattSwap.Order",
          "name": "",
          "type": "tuple"
        }
      ],
      "stateMutability": "view",
      "type": "function",
      "constant": true
    },
    {
      "inputs": [
        {
          "internalType": "address",
          "name": "user",
          "type": "address"
        }
      ],
      "name": "getUserListings",
      "outputs": [
        {
          "internalType": "uint256[]",
          "name": "",
          "type": "uint256[]"
        }
      ],
      "stateMutability": "view",
      "type": "function",
      "constant": true
    },
    {
      "inputs": [
        {
          "internalType": "address",
          "name": "user",
          "type": "address"
        }
      ],
      "name": "getUserOrders",
      "outputs": [
        {
          "internalType": "uint256[]",
          "name": "",
          "type": "uint256[]"
        }
      ],
      "stateMutability": "view",
      "type": "function",
      "constant": true
    },
    {
      "inputs": [
        {
          "internalType": "uint256",
          "name": "newPercentage",
          "type": "uint256"
        }
      ],
      "name": "setPlatformFeePercentage",
      "outputs": [],
      "stateMutability": "nonpayable",
      "type": "function"
    },
    {
      "inputs": [
        {
          "internalType": "address",
          "name": "newCollector",
          "type": "address"
        }
      ],
      "name": "setPlatformFeeCollector",
      "outputs": [],
      "stateMutability": "nonpayable",
      "type": "function"
    }
  ],
  "bytecode": "0x6080604052600060085560006009556002600a553480156200002057600080fd5b50604051620043e4380380620043e48339818101604052810190620000469190620002a1565b60016000819055506200006e620000626200016960201b60201c565b6200017160201b60201c565b600073ffffffffffffffffffffffffffffffffffffffff168173ffffffffffffffffffffffffffffffffffffffff1603620000e0576040517f08c379a0000000000000000000000000000000000000000000000000000000008152600401620000d79062000334565b60405180910390fd5b80600260006101000a81548173ffffffffffffffffffffffffffffffffffffffff021916908373ffffffffffffffffffffffffffffffffffffffff16021790555033600b60006101000a81548173ffffffffffffffffffffffffffffffffffffffff021916908373ffffffffffffffffffffffffffffffffffffffff1602179055505062000356565b600033905090565b6000600160009054906101000a900473ffffffffffffffffffffffffffffffffffffffff16905081600160006101000a81548173ffffffffffffffffffffffffffffffffffffffff021916908373ffffffffffffffffffffffffffffffffffffffff1602179055508173ffffffffffffffffffffffffffffffffffffffff168173ffffffffffffffffffffffffffffffffffffffff167f8be0079c531659141344cd1fd0a4f28419497f9722a3daafe3b4186f6b6457e060405160405180910390a35050565b600080fd5b600073ffffffffffffffffffffffffffffffffffffffff82169050919050565b600062000269826200023c565b9050919050565b6200027b816200025c565b81146200028757600080fd5b50565b6000815190506200029b8162000270565b92915050565b600060208284031215620002ba57620002b962000237565b5b6000620002ca848285016200028a565b91505092915050565b600082825260208201905092915050565b7f496e76616c696420555344432061646472657373000000000000000000000000600082015250565b60006200031c601483620002d3565b91506200032982620002e4565b602082019050919050565b600060208201905081810360008301526200034f816200030d565b9050919050565b61407e80620003666000396000f3fe608060405234801561001057600080fd5b50600436106101cf5760003560e01c806386cfa7d311610104578063d09ef241116100a2578063dfc90cf211610071578063dfc90cf214610576578063eb18a9d814610592578063f2fde38b146105c2578063f6cf2a16146105de576101cf565b8063d09ef241146104d8578063d669732214610508578063daa41e7014610524578063de74e57b14610540576101cf565b8063a85c38ef116100de578063a85c38ef14610448578063b789bf5214610480578063be47afda1461049e578063cdd78cfc146104ba576101cf565b806386cfa7d3146103c95780638da5cb5b146103f95780639e2c2a5014610417576101cf565b80636c2c9c7d116101715780638333903e1161014b5780638333903e1461032f578063843f61e21461034b578063853a65f91461037b578063856652e914610399576101cf565b80636c2c9c7d146102eb578063715018a6146103095780637bb2508514610313576101cf565b806341449e7f116101ad57806341449e7f1461023e578063514fcac71461026e5780636374b11b1461028a57806363c69f08146102bb576101cf565b8063107a274a146101d457806311eac855146102045780633b8d915f14610222575b600080fd5b6101ee60048036038101906101e99190612855565b6105fa565b6040516101fb9190612a19565b60405180910390f35b61020c610752565b6040516102199190612a9a565b60405180910390f35b61023c60048036038101906102379190612855565b610778565b005b61025860048036038101906102539190612bea565b610842565b6040516102659190612c68565b60405180910390f35b61028860048036038101906102839190612855565b610aad565b005b6102a4600480360381019061029f9190612caf565b610d54565b6040516102b2929190612cdc565b60405180910390f35b6102d560048036038101906102d09190612caf565b610dbd565b6040516102e29190612db4565b60405180910390f35b6102f3610e54565b6040516103009190612c68565b60405180910390f35b610311610e5a565b005b61032d60048036038101906103289190612855565b610e6e565b005b61034960048036038101906103449190612855565b610fb0565b005b61036560048036038101906103609190612dd6565b611006565b6040516103729190612c68565b60405180910390f35b6103836115ba565b6040516103909190612e25565b60405180910390f35b6103b360048036038101906103ae9190612e40565b6115e0565b6040516103c09190612c68565b60405180910390f35b6103e360048036038101906103de9190612e40565b611611565b6040516103f09190612c68565b60405180910390f35b610401611642565b60405161040e9190612e25565b60405180910390f35b610431600480360381019061042c9190612caf565b61166c565b60405161043f929190612cdc565b60405180910390f35b610462600480360381019061045d9190612855565b611690565b60405161047799989796959493929190612eab565b60405180910390f35b610488611745565b6040516104959190612c68565b60405180910390f35b6104b860048036038101906104b39190612855565b61174b565b005b6104c2611989565b6040516104cf9190612c68565b60405180910390f35b6104f260048036038101906104ed9190612855565b61198f565b6040516104ff9190612ffe565b60405180910390f35b610522600480360381019061051d9190612855565b611ae4565b005b61053e60048036038101906105399190612855565b611c26565b005b61055a60048036038101906105559190612855565b611ee4565b60405161056d9796959493929190613064565b60405180910390f35b610590600480360381019061058b9190612caf565b611fdb565b005b6105ac60048036038101906105a79190612caf565b612096565b6040516105b99190612db4565b60405180910390f35b6105dc60048036038101906105d79190612caf565b61212d565b005b6105f860048036038101906105f391906130da565b6121b0565b005b610602612737565b600360008381526020019081526020016000206040518060e00160405290816000820160009054906101000a900473ffffffffffffffffffffffffffffffffffffffff1673ffffffffffffffffffffffffffffffffffffffff1673ffffffffffffffffffffffffffffffffffffffff1681526020016001820154815260200160028201548152602001600382015481526020016004820160009054906101000a900460ff161515151581526020016005820180546106bf9061315c565b80601f01602080910402602001604051908101604052809291908181526020018280546106eb9061315c565b80156107385780601f1061070d57610100808354040283529160200191610738565b820191906000526020600020905b81548152906001019060200180831161071b57829003601f168201915b505050505081526020016006820154815250509050919050565b600260009054906101000a900473ffffffffffffffffffffffffffffffffffffffff1681565b60006003600083815260200190815260200160002090503373ffffffffffffffffffffffffffffffffffffffff168160000160009054906101000a900473ffffffffffffffffffffffffffffffffffffffff1673ffffffffffffffffffffffffffffffffffffffff1614610821576040517f08c379a0000000000000000000000000000000000000000000000000000000008152600401610818906131ff565b60405180910390fd5b60008160040160006101000a81548160ff0219169083151502179055505050565b6000808411610886576040517f08c379a000000000000000000000000000000000000000000000000000000000815260040161087d9061326b565b60405180910390fd5b600083116108c9576040517f08c379a00000000000000000000000000000000000000000000000000000000081526004016108c0906132d7565b60405180910390fd5b6000600860008154809291906108de90613326565b9190505590506040518060e001604052803373ffffffffffffffffffffffffffffffffffffffff168152602001868152602001858152602001868152602001600115158152602001848152602001428152506003600083815260200190815260200160002060008201518160000160006101000a81548173ffffffffffffffffffffffffffffffffffffffff021916908373ffffffffffffffffffffffffffffffffffffffff16021790555060208201518160010155604082015181600201556060820151816003015560808201518160040160006101000a81548160ff02191690831515021790555060a08201518160050190816109dd9190613510565b5060c08201518160060155905050600760003373ffffffffffffffffffffffffffffffffffffffff1673ffffffffffffffffffffffffffffffffffffffff1681526020019081526020016000208190806001815401808255809150506001900390600052602060002001600090919091909150553373ffffffffffffffffffffffffffffffffffffffff16817f12dc294b81a709d694b1337a350a12a00076c19a77a25aab67a5f0c07e0f164d8787604051610a9a929190612cdc565b60405180910390a3809150509392505050565b610ab56122cb565b60006004600083815260200190815260200160002090503373ffffffffffffffffffffffffffffffffffffffff168160010160009054906101000a900473ffffffffffffffffffffffffffffffffffffffff1673ffffffffffffffffffffffffffffffffffffffff161480610b7957503373ffffffffffffffffffffffffffffffffffffffff168160020160009054906101000a900473ffffffffffffffffffffffffffffffffffffffff1673ffffffffffffffffffffffffffffffffffffffff16145b610bb8576040517f08c379a0000000000000000000000000000000000000000000000000000000008152600401610baf9061362e565b60405180910390fd5b60008160050160009054906101000a900460ff1660ff1614610c0f576040517f08c379a0000000000000000000000000000000000000000000000000000000008152600401610c069061369a565b60405180910390fd5b6000600560008360010160009054906101000a900473ffffffffffffffffffffffffffffffffffffffff1673ffffffffffffffffffffffffffffffffffffffff1673ffffffffffffffffffffffffffffffffffffffff1681526020019081526020016000209050600081600201600085815260200190815260200160002054905080826001016000828254610ca491906136ba565b92505081905550600082600201600086815260200190815260200160002081905550826003015460036000856000015481526020019081526020016000206003016000828254610cf491906136ee565b9250508190555060028360050160006101000a81548160ff021916908360ff160217905550837f61b9399f2f0f32ca39ce8d7be32caed5ec22fe07a6daba3a467ed479ec60658260405160405180910390a2505050610d5161231a565b50565b6000806000600560008573ffffffffffffffffffffffffffffffffffffffff1673ffffffffffffffffffffffffffffffffffffffff168152602001908152602001600020905080600101548160000154610dae91906136ba565b92508060010154915050915091565b6060600660008373ffffffffffffffffffffffffffffffffffffffff1673ffffffffffffffffffffffffffffffffffffffff168152602001908152602001600020805480602002602001604051908101604052809291908181526020018280548015610e4857602002820191906000526020600020905b815481526020019060010190808311610e34575b50505050509050919050565b60085481565b610e62612324565b610e6c60006123a2565b565b60006004600083815260200190815260200160002090503373ffffffffffffffffffffffffffffffffffffffff168160020160009054906101000a900473ffffffffffffffffffffffffffffffffffffffff1673ffffffffffffffffffffffffffffffffffffffff1614610f17576040517f08c379a0000000000000000000000000000000000000000000000000000000008152600401610f0e9061376e565b60405180910390fd5b60008160050160009054906101000a900460ff1660ff1614610f6e576040517f08c379a0000000000000000000000000000000000000000000000000000000008152600401610f65906137da565b60405180910390fd5b60018160070160016101000a81548160ff0219169083151502179055508060070160009054906101000a900460ff1615610fac57610fab82612468565b5b5050565b610fb8612324565b6064811115610ffc576040517f08c379a0000000000000000000000000000000000000000000000000000000008152600401610ff390613846565b60405180910390fd5b80600a8190555050565b60006110106122cb565b60006003600085815260200190815260200160002090508060040160009054906101000a900460ff16611078576040517f08c379a000000000000000000000000000000000000000000000000000000000815260040161106f906138b2565b60405180910390fd5b600083116110bb576040517f08c379a00000000000000000000000000000000000000000000000000000000081526004016110b29061326b565b60405180910390fd5b8060030154831115611102576040517f08c379a00000000000000000000000000000000000000000000000000000000081526004016110f99061391e565b60405180910390fd5b60008160000160009054906101000a900473ffffffffffffffffffffffffffffffffffffffff1690503373ffffffffffffffffffffffffffffffffffffffff168173ffffffffffffffffffffffffffffffffffffffff1603611199576040517f08c379a00000000000000000000000000000000000000000000000000000000081526004016111909061398a565b60405180910390fd5b6000620f42408360020154866111af91906139aa565b6111b99190613a1b565b905060006064600a54836111cd91906139aa565b6111d79190613a1b565b9050600081836111e791906136ba565b90506000600560003373ffffffffffffffffffffffffffffffffffffffff1673ffffffffffffffffffffffffffffffffffffffff16815260200190815260200160002090508381600001541015611273576040517f08c379a000000000000000000000000000000000000000000000000000000000815260040161126a90613a98565b60405180910390fd5b60006009600081548092919061128890613326565b9190505590506040518061012001604052808b81526020013373ffffffffffffffffffffffffffffffffffffffff1681526020018773ffffffffffffffffffffffffffffffffffffffff1681526020018a8152602001868152602001600060ff16815260200142815260200160001515815260200160001515815250600460008381526020019081526020016000206000820151816000015560208201518160010160006101000a81548173ffffffffffffffffffffffffffffffffffffffff021916908373ffffffffffffffffffffffffffffffffffffffff16021790555060408201518160020160006101000a81548173ffffffffffffffffffffffffffffffffffffffff021916908373ffffffffffffffffffffffffffffffffffffffff160217905550606082015181600301556080820151816004015560a08201518160050160006101000a81548160ff021916908360ff16021790555060c0820151816006015560e08201518160070160006101000a81548160ff0219169083151502179055506101008201518160070160016101000a81548160ff0219169083151502179055509050508482600101600082825461144691906136ee565b9250508190555084826002016000838152602001908152602001600020819055508887600301600082825461147b91906136ba565b92505081905550600660003373ffffffffffffffffffffffffffffffffffffffff1673ffffffffffffffffffffffffffffffffffffffff168152602001908152602001600020819080600181540180825580915050600190039060005260206000200160009091909190915055600660008773ffffffffffffffffffffffffffffffffffffffff1673ffffffffffffffffffffffffffffffffffffffff1681526020019081526020016000208190806001815401808255809150506001900390600052602060002001600090919091909150553373ffffffffffffffffffffffffffffffffffffffff168a827f0304ee351529c3b3e37ed0d21ac12d1e8b5fbb40280fec8bb8850cf92d14e482898d8a60405161159a93929190613ab8565b60405180910390a4809750505050505050506115b461231a565b92915050565b600b60009054906101000a900473ffffffffffffffffffffffffffffffffffffffff1681565b600660205281600052604060002081815481106115fc57600080fd5b90600052602060002001600091509150505481565b6007602052816000526040600020818154811061162d57600080fd5b90600052602060002001600091509150505481565b6000600160009054906101000a900473ffffffffffffffffffffffffffffffffffffffff16905090565b60056020528060005260406000206000915090508060000154908060010154905082565b60046020528060005260406000206000915090508060000154908060010160009054906101000a900473ffffffffffffffffffffffffffffffffffffffff16908060020160009054906101000a900473ffffffffffffffffffffffffffffffffffffffff16908060030154908060040154908060050160009054906101000a900460ff16908060060154908060070160009054906101000a900460ff16908060070160019054906101000a900460ff16905089565b60095481565b6117536122cb565b6000600560003373ffffffffffffffffffffffffffffffffffffffff1673ffffffffffffffffffffffffffffffffffffffff16815260200190815260200160002090506000816001015482600001546117ac91906136ba565b9050808311156117f1576040517f08c379a00000000000000000000000000000000000000000000000000000000081526004016117e890613b3b565b60405180910390fd5b60008311611834576040517f08c379a000000000000000000000000000000000000000000000000000000000815260040161182b90613ba7565b60405180910390fd5b8282600001600082825461184891906136ba565b92505081905550600260009054906101000a900473ffffffffffffffffffffffffffffffffffffffff1673ffffffffffffffffffffffffffffffffffffffff1663a9059cbb33856040518363ffffffff1660e01b81526004016118ac929190613bc7565b6020604051808303816000875af11580156118cb573d6000803e3d6000fd5b505050506040513d601f19601f820116820180604052508101906118ef9190613c1c565b61192e576040517f08c379a000000000000000000000000000000000000000000000000000000000815260040161192590613c95565b60405180910390fd5b3373ffffffffffffffffffffffffffffffffffffffff167f67ba03b899c1b0009c08c2717653a5a03a8730cc17a1a8c0c57b4728991672f3846040516119749190612c68565b60405180910390a2505061198661231a565b50565b600a5481565b61199761278c565b6004600083815260200190815260200160002060405180610120016040529081600082015481526020016001820160009054906101000a900473ffffffffffffffffffffffffffffffffffffffff1673ffffffffffffffffffffffffffffffffffffffff1673ffffffffffffffffffffffffffffffffffffffff1681526020016002820160009054906101000a900473ffffffffffffffffffffffffffffffffffffffff1673ffffffffffffffffffffffffffffffffffffffff1673ffffffffffffffffffffffffffffffffffffffff16815260200160038201548152602001600482015481526020016005820160009054906101000a900460ff1660ff1660ff168152602001600682015481526020016007820160009054906101000a900460ff161515151581526020016007820160019054906101000a900460ff1615151515815250509050919050565b60006004600083815260200190815260200160002090503373ffffffffffffffffffffffffffffffffffffffff168160010160009054906101000a900473ffffffffffffffffffffffffffffffffffffffff1673ffffffffffffffffffffffffffffffffffffffff1614611b8d576040517f08c379a0000000000000000000000000000000000000000000000000000000008152600401611b8490613d01565b60405180910390fd5b60008160050160009054906101000a900460ff1660ff1614611be4576040517f08c379a0000000000000000000000000000000000000000000000000000000008152600401611bdb906137da565b60405180910390fd5b60018160070160006101000a81548160ff0219169083151502179055508060070160019054906101000a900460ff1615611c2257611c2182612468565b5b5050565b8060008111611c6a576040517f08c379a0000000000000000000000000000000000000000000000000000000008152600401611c6190613ba7565b60405180910390fd5b600260009054906101000a900473ffffffffffffffffffffffffffffffffffffffff1673ffffffffffffffffffffffffffffffffffffffff166370a08231336040518263ffffffff1660e01b8152600401611cc59190612e25565b602060405180830381865afa158015611ce2573d6000803e3d6000fd5b505050506040513d601f19601f82011682018060405250810190611d069190613d36565b811115611d48576040517f08c379a0000000000000000000000000000000000000000000000000000000008152600401611d3f90613daf565b60405180910390fd5b611d506122cb565b600260009054906101000a900473ffffffffffffffffffffffffffffffffffffffff1673ffffffffffffffffffffffffffffffffffffffff166323b872dd3330856040518463ffffffff1660e01b8152600401611daf93929190613dcf565b6020604051808303816000875af1158015611dce573d6000803e3d6000fd5b505050506040513d601f19601f82011682018060405250810190611df29190613c1c565b611e31576040517f08c379a0000000000000000000000000000000000000000000000000000000008152600401611e2890613c95565b60405180910390fd5b81600560003373ffffffffffffffffffffffffffffffffffffffff1673ffffffffffffffffffffffffffffffffffffffff1681526020019081526020016000206000016000828254611e8391906136ee565b925050819055503373ffffffffffffffffffffffffffffffffffffffff167f85e097789c3ac56c0d1376d977138b099d5ccbdf055680a82bb03e6fb52bcbe883604051611ed09190612c68565b60405180910390a2611ee061231a565b5050565b60036020528060005260406000206000915090508060000160009054906101000a900473ffffffffffffffffffffffffffffffffffffffff16908060010154908060020154908060030154908060040160009054906101000a900460ff1690806005018054611f529061315c565b80601f0160208091040260200160405190810160405280929190818152602001828054611f7e9061315c565b8015611fcb5780601f10611fa057610100808354040283529160200191611fcb565b820191906000526020600020905b815481529060010190602001808311611fae57829003601f168201915b5050505050908060060154905087565b611fe3612324565b600073ffffffffffffffffffffffffffffffffffffffff168173ffffffffffffffffffffffffffffffffffffffff1603612052576040517f08c379a000000000000000000000000000000000000000000000000000000000815260040161204990613e52565b60405180910390fd5b80600b60006101000a81548173ffffffffffffffffffffffffffffffffffffffff021916908373ffffffffffffffffffffffffffffffffffffffff16021790555050565b6060600760008373ffffffffffffffffffffffffffffffffffffffff1673ffffffffffffffffffffffffffffffffffffffff16815260200190815260200160002080548060200260200160405190810160405280929190818152602001828054801561212157602002820191906000526020600020905b81548152602001906001019080831161210d575b50505050509050919050565b612135612324565b600073ffffffffffffffffffffffffffffffffffffffff168173ffffffffffffffffffffffffffffffffffffffff16036121a4576040517f08c379a000000000000000000000000000000000000000000000000000000000815260040161219b90613ee4565b60405180910390fd5b6121ad816123a2565b50565b60006003600085815260200190815260200160002090503373ffffffffffffffffffffffffffffffffffffffff168160000160009054906101000a900473ffffffffffffffffffffffffffffffffffffffff1673ffffffffffffffffffffffffffffffffffffffff1614612259576040517f08c379a000000000000000000000000000000000000000000000000000000000815260040161225090613f50565b60405180910390fd5b8060040160009054906101000a900460ff166122aa576040517f08c379a00000000000000000000000000000000000000000000000000000000081526004016122a1906138b2565b60405180910390fd5b82816001018190555082816003018190555081816002018190555050505050565b600260005403612310576040517f08c379a000000000000000000000000000000000000000000000000000000000815260040161230790613fbc565b60405180910390fd5b6002600081905550565b6001600081905550565b61232c61272f565b73ffffffffffffffffffffffffffffffffffffffff1661234a611642565b73ffffffffffffffffffffffffffffffffffffffff16146123a0576040517f08c379a000000000000000000000000000000000000000000000000000000000815260040161239790614028565b60405180910390fd5b565b6000600160009054906101000a900473ffffffffffffffffffffffffffffffffffffffff16905081600160006101000a81548173ffffffffffffffffffffffffffffffffffffffff021916908373ffffffffffffffffffffffffffffffffffffffff1602179055508173ffffffffffffffffffffffffffffffffffffffff168173ffffffffffffffffffffffffffffffffffffffff167f8be0079c531659141344cd1fd0a4f28419497f9722a3daafe3b4186f6b6457e060405160405180910390a35050565b600060046000838152602001908152602001600020905060008160040154905060006064600a548361249a91906139aa565b6124a49190613a1b565b9050600081836124b491906136ba565b90506000600560008660010160009054906101000a900473ffffffffffffffffffffffffffffffffffffffff1673ffffffffffffffffffffffffffffffffffffffff1673ffffffffffffffffffffffffffffffffffffffff16815260200190815260200160002090508381600101600082825461253191906136ba565b925050819055508381600001600082825461254c91906136ba565b9250508190555060008160020160008881526020019081526020016000208190555081600560008760020160009054906101000a900473ffffffffffffffffffffffffffffffffffffffff1673ffffffffffffffffffffffffffffffffffffffff1673ffffffffffffffffffffffffffffffffffffffff16815260200190815260200160002060000160008282546125e491906136ee565b925050819055508260056000600b60009054906101000a900473ffffffffffffffffffffffffffffffffffffffff1673ffffffffffffffffffffffffffffffffffffffff1673ffffffffffffffffffffffffffffffffffffffff168152602001908152602001600020600001600082825461265f91906136ee565b9250508190555060018560050160006101000a81548160ff021916908360ff1602179055508460020160009054906101000a900473ffffffffffffffffffffffffffffffffffffffff1673ffffffffffffffffffffffffffffffffffffffff168560010160009054906101000a900473ffffffffffffffffffffffffffffffffffffffff1673ffffffffffffffffffffffffffffffffffffffff16877fd51de68905299e6d46c744b49ae0096f710dc1395d60071f337b0170ae962d0560405160405180910390a4505050505050565b600033905090565b6040518060e00160405280600073ffffffffffffffffffffffffffffffffffffffff16815260200160008152602001600081526020016000815260200160001515815260200160608152602001600081525090565b60405180610120016040528060008152602001600073ffffffffffffffffffffffffffffffffffffffff168152602001600073ffffffffffffffffffffffffffffffffffffffff1681526020016000815260200160008152602001600060ff168152602001600081526020016000151581526020016000151581525090565b6000604051905090565b600080fd5b600080fd5b6000819050919050565b6128328161281f565b811461283d57600080fd5b50565b60008135905061284f81612829565b92915050565b60006020828403121561286b5761286a612815565b5b600061287984828501612840565b91505092915050565b600073ffffffffffffffffffffffffffffffffffffffff82169050919050565b60006128ad82612882565b9050919050565b6128bd816128a2565b82525050565b6128cc8161281f565b82525050565b60008115159050919050565b6128e7816128d2565b82525050565b600081519050919050565b600082825260208201905092915050565b60005b8381101561292757808201518184015260208101905061290c565b60008484015250505050565b6000601f19601f8301169050919050565b600061294f826128ed565b61295981856128f8565b9350612969818560208601612909565b61297281612933565b840191505092915050565b600060e08301600083015161299560008601826128b4565b5060208301516129a860208601826128c3565b5060408301516129bb60408601826128c3565b5060608301516129ce60608601826128c3565b5060808301516129e160808601826128de565b5060a083015184820360a08601526129f98282612944565b91505060c0830151612a0e60c08601826128c3565b508091505092915050565b60006020820190508181036000830152612a33818461297d565b905092915050565b6000819050919050565b6000612a60612a5b612a5684612882565b612a3b565b612882565b9050919050565b6000612a7282612a45565b9050919050565b6000612a8482612a67565b9050919050565b612a9481612a79565b82525050565b6000602082019050612aaf6000830184612a8b565b92915050565b600080fd5b600080fd5b7f4e487b7100000000000000000000000000000000000000000000000000000000600052604160045260246000fd5b612af782612933565b810181811067ffffffffffffffff82111715612b1657612b15612abf565b5b80604052505050565b6000612b2961280b565b9050612b358282612aee565b919050565b600067ffffffffffffffff821115612b5557612b54612abf565b5b612b5e82612933565b9050602081019050919050565b82818337600083830152505050565b6000612b8d612b8884612b3a565b612b1f565b905082815260208101848484011115612ba957612ba8612aba565b5b612bb4848285612b6b565b509392505050565b600082601f830112612bd157612bd0612ab5565b5b8135612be1848260208601612b7a565b91505092915050565b600080600060608486031215612c0357612c02612815565b5b6000612c1186828701612840565b9350506020612c2286828701612840565b925050604084013567ffffffffffffffff811115612c4357612c4261281a565b5b612c4f86828701612bbc565b9150509250925092565b612c628161281f565b82525050565b6000602082019050612c7d6000830184612c59565b92915050565b612c8c816128a2565b8114612c9757600080fd5b50565b600081359050612ca981612c83565b92915050565b600060208284031215612cc557612cc4612815565b5b6000612cd384828501612c9a565b91505092915050565b6000604082019050612cf16000830185612c59565b612cfe6020830184612c59565b9392505050565b600081519050919050565b600082825260208201905092915050565b6000819050602082019050919050565b6000612d3d83836128c3565b60208301905092915050565b6000602082019050919050565b6000612d6182612d05565b612d6b8185612d10565b9350612d7683612d21565b8060005b83811015612da7578151612d8e8882612d31565b9750612d9983612d49565b925050600181019050612d7a565b5085935050505092915050565b60006020820190508181036000830152612dce8184612d56565b905092915050565b60008060408385031215612ded57612dec612815565b5b6000612dfb85828601612840565b9250506020612e0c85828601612840565b9150509250929050565b612e1f816128a2565b82525050565b6000602082019050612e3a6000830184612e16565b92915050565b60008060408385031215612e5757612e56612815565b5b6000612e6585828601612c9a565b9250506020612e7685828601612840565b9150509250929050565b600060ff82169050919050565b612e9681612e80565b82525050565b612ea5816128d2565b82525050565b600061012082019050612ec1600083018c612c59565b612ece602083018b612e16565b612edb604083018a612e16565b612ee86060830189612c59565b612ef56080830188612c59565b612f0260a0830187612e8d565b612f0f60c0830186612c59565b612f1c60e0830185612e9c565b612f2a610100830184612e9c565b9a9950505050505050505050565b612f4181612e80565b82525050565b61012082016000820151612f5e60008501826128c3565b506020820151612f7160208501826128b4565b506040820151612f8460408501826128b4565b506060820151612f9760608501826128c3565b506080820151612faa60808501826128c3565b5060a0820151612fbd60a0850182612f38565b5060c0820151612fd060c08501826128c3565b5060e0820151612fe360e08501826128de565b50610100820151612ff86101008501826128de565b50505050565b6000610120820190506130146000830184612f47565b92915050565b600082825260208201905092915050565b6000613036826128ed565b613040818561301a565b9350613050818560208601612909565b61305981612933565b840191505092915050565b600060e082019050613079600083018a612e16565b6130866020830189612c59565b6130936040830188612c59565b6130a06060830187612c59565b6130ad6080830186612e9c565b81810360a08301526130bf818561302b565b90506130ce60c0830184612c59565b98975050505050505050565b6000806000606084860312156130f3576130f2612815565b5b600061310186828701612840565b935050602061311286828701612840565b925050604061312386828701612840565b9150509250925092565b7f4e487b7100000000000000000000000000000000000000000000000000000000600052602260045260246000fd5b6000600282049050600182168061317457607f821691505b6020821081036131875761318661312d565b5b50919050565b7f4f6e6c792073656c6c65722063616e2064656163746976617465206c6973746960008201527f6e67000000000000000000000000000000000000000000000000000000000000602082015250565b60006131e960228361301a565b91506131f48261318d565b604082019050919050565b60006020820190508181036000830152613218816131dc565b9050919050565b7f5175616e74697479206d7573742062652067726561746572207468616e203000600082015250565b6000613255601f8361301a565b91506132608261321f565b602082019050919050565b6000602082019050818103600083015261328481613248565b9050919050565b7f5072696365206d7573742062652067726561746572207468616e203000000000600082015250565b60006132c1601c8361301a565b91506132cc8261328b565b602082019050919050565b600060208201905081810360008301526132f0816132b4565b9050919050565b7f4e487b7100000000000000000000000000000000000000000000000000000000600052601160045260246000fd5b60006133318261281f565b91507fffffffffffffffffffffffffffffffffffffffffffffffffffffffffffffffff8203613363576133626132f7565b5b600182019050919050565b60008190508160005260206000209050919050565b60006020601f8301049050919050565b600082821b905092915050565b6000600883026133d07fffffffffffffffffffffffffffffffffffffffffffffffffffffffffffffffff82613393565b6133da8683613393565b95508019841693508086168417925050509392505050565b600061340d6134086134038461281f565b612a3b565b61281f565b9050919050565b6000819050919050565b613427836133f2565b61343b61343382613414565b8484546133a0565b825550505050565b600090565b613450613443565b61345b81848461341e565b505050565b5b8181101561347f57613474600082613448565b600181019050613461565b5050565b601f8211156134c4576134958161336e565b61349e84613383565b810160208510156134ad578190505b6134c16134b985613383565b830182613460565b50505b505050565b600082821c905092915050565b60006134e7600019846008026134c9565b1980831691505092915050565b600061350083836134d6565b9150826002028217905092915050565b613519826128ed565b67ffffffffffffffff81111561353257613531612abf565b5b61353c825461315c565b613547828285613483565b600060209050601f83116001811461357a5760008415613568578287015190505b61357285826134f4565b8655506135da565b601f1984166135888661336e565b60005b828110156135b05784890151825560018201915060208501945060208101905061358b565b868310156135cd57848901516135c9601f8916826134d6565b8355505b6001600288020188555050505b505050505050565b7f4f6e6c79206275796572206f722073656c6c65722063616e2063616e63656c00600082015250565b6000613618601f8361301a565b9150613623826135e2565b602082019050919050565b600060208201905081810360008301526136478161360b565b9050919050565b7f4f726465722063616e6e6f742062652063616e63656c6c656400000000000000600082015250565b600061368460198361301a565b915061368f8261364e565b602082019050919050565b600060208201905081810360008301526136b381613677565b9050919050565b60006136c58261281f565b91506136d08361281f565b92508282039050818111156136e8576136e76132f7565b5b92915050565b60006136f98261281f565b91506137048361281f565b925082820190508082111561371c5761371b6132f7565b5b92915050565b7f4f6e6c792073656c6c65722063616e20617070726f7665000000000000000000600082015250565b600061375860178361301a565b915061376382613722565b602082019050919050565b600060208201905081810360008301526137878161374b565b9050919050565b7f4f72646572206973206e6f742070656e64696e67000000000000000000000000600082015250565b60006137c460148361301a565b91506137cf8261378e565b602082019050919050565b600060208201905081810360008301526137f3816137b7565b9050919050565b7f4665652063616e6e6f7420657863656564203130302500000000000000000000600082015250565b600061383060168361301a565b915061383b826137fa565b602082019050919050565b6000602082019050818103600083015261385f81613823565b9050919050565b7f4c697374696e67206973206e6f74206163746976650000000000000000000000600082015250565b600061389c60158361301a565b91506138a782613866565b602082019050919050565b600060208201905081810360008301526138cb8161388f565b9050919050565b7f496e73756666696369656e7420617661696c61626c65207175616e7469747900600082015250565b6000613908601f8361301a565b9150613913826138d2565b602082019050919050565b60006020820190508181036000830152613937816138fb565b9050919050565b7f43616e6e6f74206275792066726f6d20796f757273656c660000000000000000600082015250565b600061397460188361301a565b915061397f8261393e565b602082019050919050565b600060208201905081810360008301526139a381613967565b9050919050565b60006139b58261281f565b91506139c08361281f565b92508282026139ce8161281f565b915082820484148315176139e5576139e46132f7565b5b5092915050565b7f4e487b7100000000000000000000000000000000000000000000000000000000600052601260045260246000fd5b6000613a268261281f565b9150613a318361281f565b925082613a4157613a406139ec565b5b828204905092915050565b7f496e73756666696369656e7420657363726f772062616c616e63650000000000600082015250565b6000613a82601b8361301a565b9150613a8d82613a4c565b602082019050919050565b60006020820190508181036000830152613ab181613a75565b9050919050565b6000606082019050613acd6000830186612e16565b613ada6020830185612c59565b613ae76040830184612c59565b949350505050565b7f496e73756666696369656e7420617661696c61626c652062616c616e63650000600082015250565b6000613b25601e8361301a565b9150613b3082613aef565b602082019050919050565b60006020820190508181036000830152613b5481613b18565b9050919050565b7f416d6f756e74206d7573742062652067726561746572207468616e2030000000600082015250565b6000613b91601d8361301a565b9150613b9c82613b5b565b602082019050919050565b60006020820190508181036000830152613bc081613b84565b9050919050565b6000604082019050613bdc6000830185612e16565b613be96020830184612c59565b9392505050565b613bf9816128d2565b8114613c0457600080fd5b50565b600081519050613c1681613bf0565b92915050565b600060208284031215613c3257613c31612815565b5b6000613c4084828501613c07565b91505092915050565b7f55534443207472616e73666572206661696c6564000000000000000000000000600082015250565b6000613c7f60148361301a565b9150613c8a82613c49565b602082019050919050565b60006020820190508181036000830152613cae81613c72565b9050919050565b7f4f6e6c792062757965722063616e20617070726f766500000000000000000000600082015250565b6000613ceb60168361301a565b9150613cf682613cb5565b602082019050919050565b60006020820190508181036000830152613d1a81613cde565b9050919050565b600081519050613d3081612829565b92915050565b600060208284031215613d4c57613d4b612815565b5b6000613d5a84828501613d21565b91505092915050565b7f496e73756666696369656e7420555344432062616c616e636500000000000000600082015250565b6000613d9960198361301a565b9150613da482613d63565b602082019050919050565b60006020820190508181036000830152613dc881613d8c565b9050919050565b6000606082019050613de46000830186612e16565b613df16020830185612e16565b613dfe6040830184612c59565b949350505050565b7f496e76616c696420616464726573730000000000000000000000000000000000600082015250565b6000613e3c600f8361301a565b9150613e4782613e06565b602082019050919050565b60006020820190508181036000830152613e6b81613e2f565b9050919050565b7f4f776e61626c653a206e6577206f776e657220697320746865207a65726f206160008201527f6464726573730000000000000000000000000000000000000000000000000000602082015250565b6000613ece60268361301a565b9150613ed982613e72565b604082019050919050565b60006020820190508181036000830152613efd81613ec1565b9050919050565b7f4f6e6c792073656c6c65722063616e20757064617465206c697374696e670000600082015250565b6000613f3a601e8361301a565b9150613f4582613f04565b602082019050919050565b60006020820190508181036000830152613f6981613f2d565b9050919050565b7f5265656e7472616e637947756172643a207265656e7472616e742063616c6c00600082015250565b6000613fa6601f8361301a565b9150613fb182613f70565b602082019050919050565b60006020820190508181036000830152613fd581613f99565b9050919050565b7f4f776e61626c653a2063616c6c6572206973206e6f7420746865206f776e6572600082015250565b600061401260208361301a565b915061401d82613fdc565b602082019050919050565b6000602082019050818103600083015261404181614005565b905091905056fea2646970667358221220feb1735ee4cd406b00c788d495bba55de0baf60c82b958c99713368de4bc1f5764736f6c63430008130033",
  "immutableReferences": {},
  "source": "// SPDX-License-Identifier: MIT\r\npragma solidity ^0.8.19;\r\n\r\nimport \"@openzeppelin/contracts/token/ERC20/IERC20.sol\";\r\nimport \"@openzeppelin/contracts/security/ReentrancyGuard.sol\";\r\nimport \"@openzeppelin/contracts/access/Ownable.sol\";\r\n\r\n/**\r\n * @title WattSwap\r\n * @dev Smart contract for energy trading with USDC payments on Avalanche\r\n * Supports cross-chain payments via Circle CCTP and Circle Gateway\r\n */\r\ncontract WattSwap is ReentrancyGuard, Ownable {\r\n    \r\n    // ============ State Variables ============\r\n    IERC20 public usdcToken;\r\n    \r\n    // Energy listing structure\r\n    struct EnergyListing {\r\n        address seller;\r\n        uint256 quantity;\r\n        uint256 pricePerUnit;\r\n        uint256 availableQuantity;\r\n        bool active;\r\n        string location;\r\n        uint256 timestamp;\r\n    }\r\n    \r\n    // Energy transaction/order structure\r\n    struct Order {\r\n        uint256 listingId;\r\n        address buyer;\r\n        address seller;\r\n        uint256 quantity;\r\n        uint256 totalPrice;\r\n        uint8 status; // 0: pending, 1: completed, 2: cancelled, 3: disputed\r\n        uint256 timestamp;\r\n        bool buyerApproved;\r\n        bool sellerApproved;\r\n    }\r\n    \r\n    // Escrow account structure\r\n    struct EscrowAccount {\r\n        uint256 balance;\r\n        uint256 lockedAmount;\r\n        mapping(uint256 => uint256) orderLocked;\r\n    }\r\n    \r\n    // ============ Mappings ============\r\n    mapping(uint256 => EnergyListing) public listings;\r\n    mapping(uint256 => Order) public orders;\r\n    mapping(address => EscrowAccount) public escrowAccounts;\r\n    mapping(address => uint256[]) public userOrders;\r\n    mapping(address => uint256[]) public userListings;\r\n    \r\n    // ============ State Variables ============\r\n    uint256 public listingCounter = 0;\r\n    uint256 public orderCounter = 0;\r\n    uint256 public platformFeePercentage = 2; // 2% platform fee\r\n    address public platformFeeCollector;\r\n    \r\n    // ============ Events ============\r\n    event ListingCreated(\r\n        uint256 indexed listingId,\r\n        address indexed seller,\r\n        uint256 quantity,\r\n        uint256 pricePerUnit\r\n    );\r\n    \r\n    event OrderPlaced(\r\n        uint256 indexed orderId,\r\n        uint256 indexed listingId,\r\n        address indexed buyer,\r\n        address seller,\r\n        uint256 quantity,\r\n        uint256 totalPrice\r\n    );\r\n    \r\n    event EscrowDeposited(\r\n        address indexed user,\r\n        uint256 amount\r\n    );\r\n    \r\n    event EscrowWithdrawn(\r\n        address indexed user,\r\n        uint256 amount\r\n    );\r\n    \r\n    event OrderCompleted(\r\n        uint256 indexed orderId,\r\n        address indexed buyer,\r\n        address indexed seller\r\n    );\r\n    \r\n    event OrderCancelled(\r\n        uint256 indexed orderId\r\n    );\r\n    \r\n    // ============ Modifiers ============\r\n    modifier validUSDCAmount(uint256 amount) {\r\n        require(amount > 0, \"Amount must be greater than 0\");\r\n        require(amount <= usdcToken.balanceOf(msg.sender), \"Insufficient USDC balance\");\r\n        _;\r\n    }\r\n    \r\n    // ============ Constructor ============\r\n    /**\r\n     * @dev Initialize WattSwap contract with USDC token address\r\n     * @param _usdcAddress Address of USDC token on the deployed chain\r\n     */\r\n    constructor(address _usdcAddress) {\r\n        require(_usdcAddress != address(0), \"Invalid USDC address\");\r\n        usdcToken = IERC20(_usdcAddress);\r\n        platformFeeCollector = msg.sender;\r\n    }\r\n    \r\n    // ============ Escrow Functions ============\r\n    \r\n    /**\r\n     * @dev Deposit USDC into escrow account\r\n     * @param amount Amount of USDC to deposit\r\n     */\r\n    function depositToEscrow(uint256 amount) external validUSDCAmount(amount) nonReentrant {\r\n        require(\r\n            usdcToken.transferFrom(msg.sender, address(this), amount),\r\n            \"USDC transfer failed\"\r\n        );\r\n        \r\n        escrowAccounts[msg.sender].balance += amount;\r\n        emit EscrowDeposited(msg.sender, amount);\r\n    }\r\n    \r\n    /**\r\n     * @dev Withdraw USDC from escrow account\r\n     * @param amount Amount of USDC to withdraw\r\n     */\r\n    function withdrawFromEscrow(uint256 amount) external nonReentrant {\r\n        EscrowAccount storage account = escrowAccounts[msg.sender];\r\n        uint256 availableBalance = account.balance - account.lockedAmount;\r\n        \r\n        require(amount <= availableBalance, \"Insufficient available balance\");\r\n        require(amount > 0, \"Amount must be greater than 0\");\r\n        \r\n        account.balance -= amount;\r\n        \r\n        require(\r\n            usdcToken.transfer(msg.sender, amount),\r\n            \"USDC transfer failed\"\r\n        );\r\n        \r\n        emit EscrowWithdrawn(msg.sender, amount);\r\n    }\r\n    \r\n    // ============ Listing Functions ============\r\n    \r\n    /**\r\n     * @dev Create energy listing\r\n     * @param quantity Amount of energy available (in units)\r\n     * @param pricePerUnit Price per unit in USDC (with 6 decimals)\r\n     * @param location Physical location of the energy source\r\n     */\r\n    function createListing(\r\n        uint256 quantity,\r\n        uint256 pricePerUnit,\r\n        string memory location\r\n    ) external returns (uint256) {\r\n        require(quantity > 0, \"Quantity must be greater than 0\");\r\n        require(pricePerUnit > 0, \"Price must be greater than 0\");\r\n        \r\n        uint256 listingId = listingCounter++;\r\n        \r\n        listings[listingId] = EnergyListing({\r\n            seller: msg.sender,\r\n            quantity: quantity,\r\n            pricePerUnit: pricePerUnit,\r\n            availableQuantity: quantity,\r\n            active: true,\r\n            location: location,\r\n            timestamp: block.timestamp\r\n        });\r\n        \r\n        userListings[msg.sender].push(listingId);\r\n        \r\n        emit ListingCreated(listingId, msg.sender, quantity, pricePerUnit);\r\n        return listingId;\r\n    }\r\n    \r\n    /**\r\n     * @dev Update listing\r\n     */\r\n    function updateListing(\r\n        uint256 listingId,\r\n        uint256 newQuantity,\r\n        uint256 newPrice\r\n    ) external {\r\n        EnergyListing storage listing = listings[listingId];\r\n        require(listing.seller == msg.sender, \"Only seller can update listing\");\r\n        require(listing.active, \"Listing is not active\");\r\n        \r\n        listing.quantity = newQuantity;\r\n        listing.availableQuantity = newQuantity;\r\n        listing.pricePerUnit = newPrice;\r\n    }\r\n    \r\n    /**\r\n     * @dev Deactivate listing\r\n     */\r\n    function deactivateListing(uint256 listingId) external {\r\n        EnergyListing storage listing = listings[listingId];\r\n        require(listing.seller == msg.sender, \"Only seller can deactivate listing\");\r\n        listing.active = false;\r\n    }\r\n    \r\n    // ============ Order Functions ============\r\n    \r\n    /**\r\n     * @dev Place energy order with USDC payment\r\n     * @param listingId ID of the energy listing\r\n     * @param quantity Amount of energy to purchase\r\n     */\r\n    function placeOrder(uint256 listingId, uint256 quantity) external nonReentrant returns (uint256) {\r\n        EnergyListing storage listing = listings[listingId];\r\n        require(listing.active, \"Listing is not active\");\r\n        require(quantity > 0, \"Quantity must be greater than 0\");\r\n        require(quantity <= listing.availableQuantity, \"Insufficient available quantity\");\r\n        \r\n        address seller = listing.seller;\r\n        require(seller != msg.sender, \"Cannot buy from yourself\");\r\n        \r\n        // Calculate total price with platform fee\r\n        uint256 totalPrice = (quantity * listing.pricePerUnit) / 1e6;\r\n        uint256 platformFee = (totalPrice * platformFeePercentage) / 100;\r\n        uint256 sellerAmount = totalPrice - platformFee;\r\n        \r\n        // Lock funds in escrow\r\n        EscrowAccount storage buyerEscrow = escrowAccounts[msg.sender];\r\n        require(buyerEscrow.balance >= totalPrice, \"Insufficient escrow balance\");\r\n        \r\n        uint256 orderId = orderCounter++;\r\n        \r\n        orders[orderId] = Order({\r\n            listingId: listingId,\r\n            buyer: msg.sender,\r\n            seller: seller,\r\n            quantity: quantity,\r\n            totalPrice: totalPrice,\r\n            status: 0, // pending\r\n            timestamp: block.timestamp,\r\n            buyerApproved: false,\r\n            sellerApproved: false\r\n        });\r\n        \r\n        // Lock funds\r\n        buyerEscrow.lockedAmount += totalPrice;\r\n        buyerEscrow.orderLocked[orderId] = totalPrice;\r\n        \r\n        // Update listing availability\r\n        listing.availableQuantity -= quantity;\r\n        \r\n        // Add order to user orders\r\n        userOrders[msg.sender].push(orderId);\r\n        userOrders[seller].push(orderId);\r\n        \r\n        emit OrderPlaced(orderId, listingId, msg.sender, seller, quantity, totalPrice);\r\n        return orderId;\r\n    }\r\n    \r\n    /**\r\n     * @dev Approve order completion by buyer\r\n     * @param orderId ID of the order\r\n     */\r\n    function approveOrderByBuyer(uint256 orderId) external {\r\n        Order storage order = orders[orderId];\r\n        require(order.buyer == msg.sender, \"Only buyer can approve\");\r\n        require(order.status == 0, \"Order is not pending\");\r\n        \r\n        order.buyerApproved = true;\r\n        \r\n        // Complete order if both parties approved\r\n        if (order.sellerApproved) {\r\n            _completeOrder(orderId);\r\n        }\r\n    }\r\n    \r\n    /**\r\n     * @dev Approve order completion by seller\r\n     * @param orderId ID of the order\r\n     */\r\n    function approveOrderBySeller(uint256 orderId) external {\r\n        Order storage order = orders[orderId];\r\n        require(order.seller == msg.sender, \"Only seller can approve\");\r\n        require(order.status == 0, \"Order is not pending\");\r\n        \r\n        order.sellerApproved = true;\r\n        \r\n        // Complete order if both parties approved\r\n        if (order.buyerApproved) {\r\n            _completeOrder(orderId);\r\n        }\r\n    }\r\n    \r\n    /**\r\n     * @dev Internal function to complete order and distribute USDC\r\n     */\r\n    function _completeOrder(uint256 orderId) internal {\r\n        Order storage order = orders[orderId];\r\n        \r\n        uint256 totalPrice = order.totalPrice;\r\n        uint256 platformFee = (totalPrice * platformFeePercentage) / 100;\r\n        uint256 sellerAmount = totalPrice - platformFee;\r\n        \r\n        // Release funds from escrow\r\n        EscrowAccount storage buyerEscrow = escrowAccounts[order.buyer];\r\n        buyerEscrow.lockedAmount -= totalPrice;\r\n        buyerEscrow.balance -= totalPrice;\r\n        buyerEscrow.orderLocked[orderId] = 0;\r\n        \r\n        // Credit seller escrow\r\n        escrowAccounts[order.seller].balance += sellerAmount;\r\n        \r\n        // Transfer platform fee to collector\r\n        escrowAccounts[platformFeeCollector].balance += platformFee;\r\n        \r\n        order.status = 1; // completed\r\n        \r\n        emit OrderCompleted(orderId, order.buyer, order.seller);\r\n    }\r\n    \r\n    /**\r\n     * @dev Cancel order\r\n     * @param orderId ID of the order to cancel\r\n     */\r\n    function cancelOrder(uint256 orderId) external nonReentrant {\r\n        Order storage order = orders[orderId];\r\n        require(\r\n            order.buyer == msg.sender || order.seller == msg.sender,\r\n            \"Only buyer or seller can cancel\"\r\n        );\r\n        require(order.status == 0, \"Order cannot be cancelled\");\r\n        \r\n        // Release locked funds back to buyer\r\n        EscrowAccount storage buyerEscrow = escrowAccounts[order.buyer];\r\n        uint256 lockedAmount = buyerEscrow.orderLocked[orderId];\r\n        \r\n        buyerEscrow.lockedAmount -= lockedAmount;\r\n        buyerEscrow.orderLocked[orderId] = 0;\r\n        \r\n        // Restore listing availability\r\n        listings[order.listingId].availableQuantity += order.quantity;\r\n        \r\n        order.status = 2; // cancelled\r\n        \r\n        emit OrderCancelled(orderId);\r\n    }\r\n    \r\n    // ============ View Functions ============\r\n    \r\n    /**\r\n     * @dev Get escrow balance for user\r\n     */\r\n    function getEscrowBalance(address user) external view returns (uint256 available, uint256 locked) {\r\n        EscrowAccount storage account = escrowAccounts[user];\r\n        available = account.balance - account.lockedAmount;\r\n        locked = account.lockedAmount;\r\n    }\r\n    \r\n    /**\r\n     * @dev Get listing details\r\n     */\r\n    function getListing(uint256 listingId) external view returns (EnergyListing memory) {\r\n        return listings[listingId];\r\n    }\r\n    \r\n    /**\r\n     * @dev Get order details\r\n     */\r\n    function getOrder(uint256 orderId) external view returns (Order memory) {\r\n        return orders[orderId];\r\n    }\r\n    \r\n    /**\r\n     * @dev Get user listings\r\n     */\r\n    function getUserListings(address user) external view returns (uint256[] memory) {\r\n        return userListings[user];\r\n    }\r\n    \r\n    /**\r\n     * @dev Get user orders\r\n     */\r\n    function getUserOrders(address user) external view returns (uint256[] memory) {\r\n        return userOrders[user];\r\n    }\r\n    \r\n    // ============ Admin Functions ============\r\n    \r\n    /**\r\n     * @dev Update platform fee percentage\r\n     */\r\n    function setPlatformFeePercentage(uint256 newPercentage) external onlyOwner {\r\n        require(newPercentage <= 100, \"Fee cannot exceed 100%\");\r\n        platformFeePercentage = newPercentage;\r\n    }\r\n    \r\n    /**\r\n     * @dev Update platform fee collector address\r\n     */\r\n    function setPlatformFeeCollector(address newCollector) external onlyOwner {\r\n        require(newCollector != address(0), \"Invalid address\");\r\n        platformFeeCollector = newCollector;\r\n    }\r\n}\r\n",
  "sourcePath": "A:\\Projects\\WattSwap\\WattSwap_Primary\\contracts\\WattSwapV2.sol",
  "compiler": {
    "name": "solc",
    "version": "0.8.19+commit.7dd6d404.Emscripten.clang"
  },
  "schemaVersion": "3.4.16",
  "updatedAt": "2026-04-23T01:29:44.008Z",
  "networkType": "ethereum",
  "devdoc": {
    "details": "Smart contract for energy trading with USDC payments on Avalanche Supports cross-chain payments via Circle CCTP and Circle Gateway",
    "kind": "dev",
    "methods": {
      "approveOrderByBuyer(uint256)": {
        "details": "Approve order completion by buyer",
        "params": {
          "orderId": "ID of the order"
        }
      },
      "approveOrderBySeller(uint256)": {
        "details": "Approve order completion by seller",
        "params": {
          "orderId": "ID of the order"
        }
      },
      "cancelOrder(uint256)": {
        "details": "Cancel order",
        "params": {
          "orderId": "ID of the order to cancel"
        }
      },
      "constructor": {
        "details": "Initialize WattSwap contract with USDC token address",
        "params": {
          "_usdcAddress": "Address of USDC token on the deployed chain"
        }
      },
      "createListing(uint256,uint256,string)": {
        "details": "Create energy listing",
        "params": {
          "location": "Physical location of the energy source",
          "pricePerUnit": "Price per unit in USDC (with 6 decimals)",
          "quantity": "Amount of energy available (in units)"
        }
      },
      "deactivateListing(uint256)": {
        "details": "Deactivate listing"
      },
      "depositToEscrow(uint256)": {
        "details": "Deposit USDC into escrow account",
        "params": {
          "amount": "Amount of USDC to deposit"
        }
      },
      "getEscrowBalance(address)": {
        "details": "Get escrow balance for user"
      },
      "getListing(uint256)": {
        "details": "Get listing details"
      },
      "getOrder(uint256)": {
        "details": "Get order details"
      },
      "getUserListings(address)": {
        "details": "Get user listings"
      },
      "getUserOrders(address)": {
        "details": "Get user orders"
      },
      "owner()": {
        "details": "Returns the address of the current owner."
      },
      "placeOrder(uint256,uint256)": {
        "details": "Place energy order with USDC payment",
        "params": {
          "listingId": "ID of the energy listing",
          "quantity": "Amount of energy to purchase"
        }
      },
      "renounceOwnership()": {
        "details": "Leaves the contract without owner. It will not be possible to call `onlyOwner` functions. Can only be called by the current owner. NOTE: Renouncing ownership will leave the contract without an owner, thereby disabling any functionality that is only available to the owner."
      },
      "setPlatformFeeCollector(address)": {
        "details": "Update platform fee collector address"
      },
      "setPlatformFeePercentage(uint256)": {
        "details": "Update platform fee percentage"
      },
      "transferOwnership(address)": {
        "details": "Transfers ownership of the contract to a new account (`newOwner`). Can only be called by the current owner."
      },
      "updateListing(uint256,uint256,uint256)": {
        "details": "Update listing"
      },
      "withdrawFromEscrow(uint256)": {
        "details": "Withdraw USDC from escrow account",
        "params": {
          "amount": "Amount of USDC to withdraw"
        }
      }
    },
    "title": "WattSwap",
    "version": 1
  },
  "userdoc": {
    "kind": "user",
    "methods": {},
    "version": 1
  }
}