{
  "contractName": "WTSWPToken",
  "abi": [
    {
      "inputs": [
        {
          "internalType": "uint256",
          "name": "initialSupply",
          "type": "uint256"
        }
      ],
      "stateMutability": "nonpayable",
      "type": "constructor"
    },
    {
      "anonymous": false,
      "inputs": [
        {
          "indexed": true,
          "internalType": "address",
          "name": "from",
          "type": "address"
        },
        {
          "indexed": true,
          "internalType": "address",
          "name": "to",
          "type": "address"
        },
        {
          "indexed": false,
          "internalType": "uint256",
          "name": "value",
          "type": "uint256"
        }
      ],
      "name": "Transfer",
      "type": "event"
    },
    {
      "inputs": [
        {
          "internalType": "address",
          "name": "",
          "type": "address"
        }
      ],
      "name": "balanceOf",
      "outputs": [
        {
          "internalType": "uint256",
          "name": "",
          "type": "uint256"
        }
      ],
      "stateMutability": "view",
      "type": "function",
      "constant": true
    },
    {
      "inputs": [],
      "name": "decimals",
      "outputs": [
        {
          "internalType": "uint8",
          "name": "",
          "type": "uint8"
        }
      ],
      "stateMutability": "view",
      "type": "function",
      "constant": true
    },
    {
      "inputs": [],
      "name": "name",
      "outputs": [
        {
          "internalType": "string",
          "name": "",
          "type": "string"
        }
      ],
      "stateMutability": "view",
      "type": "function",
      "constant": true
    },
    {
      "inputs": [],
      "name": "symbol",
      "outputs": [
        {
          "internalType": "string",
          "name": "",
          "type": "string"
        }
      ],
      "stateMutability": "view",
      "type": "function",
      "constant": true
    },
    {
      "inputs": [],
      "name": "totalSupply",
      "outputs": [
        {
          "internalType": "uint256",
          "name": "",
          "type": "uint256"
        }
      ],
      "stateMutability": "view",
      "type": "function",
      "constant": true
    },
    {
      "inputs": [
        {
          "internalType": "address",
          "name": "recipient",
          "type": "address"
        },
        {
          "internalType": "uint256",
          "name": "amount",
          "type": "uint256"
        }
      ],
      "name": "transfer",
      "outputs": [
        {
          "internalType": "bool",
          "name": "",
          "type": "bool"
        }
      ],
      "stateMutability": "nonpayable",
      "type": "function"
    }
  ],
  "bytecode": "0x608060405273495a88f75eaaacba4ae15ca2046663cb5ee607e36000806101000a81548173ffffffffffffffffffffffffffffffffffffffff021916908373ffffffffffffffffffffffffffffffffffffffff1602179055506040518060400160405280600b81526020017f575453575020546f6b656e000000000000000000000000000000000000000000815250600190816200009e91906200046d565b506040518060400160405280600581526020017f575453575000000000000000000000000000000000000000000000000000000081525060029081620000e591906200046d565b506012600460006101000a81548160ff021916908360ff1602179055503480156200010f57600080fd5b50604051620010b5380380620010b583398181016040528101906200013591906200058a565b62000167600460009054906101000a900460ff16600a6200015791906200074c565b82620001db60201b90919060201c565b600381905550600354600560008060009054906101000a900473ffffffffffffffffffffffffffffffffffffffff1673ffffffffffffffffffffffffffffffffffffffff1673ffffffffffffffffffffffffffffffffffffffff1681526020019081526020016000208190555050620007e8565b60008183620001eb91906200079d565b905092915050565b600081519050919050565b7f4e487b7100000000000000000000000000000000000000000000000000000000600052604160045260246000fd5b7f4e487b7100000000000000000000000000000000000000000000000000000000600052602260045260246000fd5b600060028204905060018216806200027557607f821691505b6020821081036200028b576200028a6200022d565b5b50919050565b60008190508160005260206000209050919050565b60006020601f8301049050919050565b600082821b905092915050565b600060088302620002f57fffffffffffffffffffffffffffffffffffffffffffffffffffffffffffffffff82620002b6565b620003018683620002b6565b95508019841693508086168417925050509392505050565b6000819050919050565b6000819050919050565b60006200034e62000348620003428462000319565b62000323565b62000319565b9050919050565b6000819050919050565b6200036a836200032d565b62000382620003798262000355565b848454620002c3565b825550505050565b600090565b620003996200038a565b620003a68184846200035f565b505050565b5b81811015620003ce57620003c26000826200038f565b600181019050620003ac565b5050565b601f8211156200041d57620003e78162000291565b620003f284620002a6565b8101602085101562000402578190505b6200041a6200041185620002a6565b830182620003ab565b50505b505050565b600082821c905092915050565b6000620004426000198460080262000422565b1980831691505092915050565b60006200045d83836200042f565b9150826002028217905092915050565b6200047882620001f3565b67ffffffffffffffff811115620004945762000493620001fe565b5b620004a082546200025c565b620004ad828285620003d2565b600060209050601f831160018114620004e55760008415620004d0578287015190505b620004dc85826200044f565b8655506200054c565b601f198416620004f58662000291565b60005b828110156200051f57848901518255600182019150602085019450602081019050620004f8565b868310156200053f57848901516200053b601f8916826200042f565b8355505b6001600288020188555050505b505050505050565b600080fd5b620005648162000319565b81146200057057600080fd5b50565b600081519050620005848162000559565b92915050565b600060208284031215620005a357620005a262000554565b5b6000620005b38482850162000573565b91505092915050565b7f4e487b7100000000000000000000000000000000000000000000000000000000600052601160045260246000fd5b60008160011c9050919050565b6000808291508390505b60018511156200064a57808604811115620006225762000621620005bc565b5b6001851615620006325780820291505b80810290506200064285620005eb565b945062000602565b94509492505050565b60008262000665576001905062000738565b8162000675576000905062000738565b81600181146200068e57600281146200069957620006cf565b600191505062000738565b60ff841115620006ae57620006ad620005bc565b5b8360020a915084821115620006c857620006c7620005bc565b5b5062000738565b5060208310610133831016604e8410600b8410161715620007095782820a905083811115620007035762000702620005bc565b5b62000738565b620007188484846001620005f8565b92509050818404811115620007325762000731620005bc565b5b81810290505b9392505050565b600060ff82169050919050565b6000620007598262000319565b915062000766836200073f565b9250620007957fffffffffffffffffffffffffffffffffffffffffffffffffffffffffffffffff848462000653565b905092915050565b6000620007aa8262000319565b9150620007b78362000319565b9250828202620007c78162000319565b91508282048414831517620007e157620007e0620005bc565b5b5092915050565b6108bd80620007f86000396000f3fe608060405234801561001057600080fd5b50600436106100625760003560e01c806306fdde031461006757806318160ddd14610085578063313ce567146100a357806370a08231146100c157806395d89b41146100f1578063a9059cbb1461010f575b600080fd5b61006f61013f565b60405161007c9190610565565b60405180910390f35b61008d6101cd565b60405161009a91906105a0565b60405180910390f35b6100ab6101d3565b6040516100b891906105d7565b60405180910390f35b6100db60048036038101906100d69190610655565b6101e6565b6040516100e891906105a0565b60405180910390f35b6100f96101fe565b6040516101069190610565565b60405180910390f35b610129600480360381019061012491906106ae565b61028c565b6040516101369190610709565b60405180910390f35b6001805461014c90610753565b80601f016020809104026020016040519081016040528092919081815260200182805461017890610753565b80156101c55780601f1061019a576101008083540402835291602001916101c5565b820191906000526020600020905b8154815290600101906020018083116101a857829003601f168201915b505050505081565b60035481565b600460009054906101000a900460ff1681565b60056020528060005260406000206000915090505481565b6002805461020b90610753565b80601f016020809104026020016040519081016040528092919081815260200182805461023790610753565b80156102845780601f1061025957610100808354040283529160200191610284565b820191906000526020600020905b81548152906001019060200180831161026757829003601f168201915b505050505081565b600081600560003373ffffffffffffffffffffffffffffffffffffffff1673ffffffffffffffffffffffffffffffffffffffff168152602001908152602001600020541015610310576040517f08c379a0000000000000000000000000000000000000000000000000000000008152600401610307906107d0565b60405180910390fd5b61036282600560003373ffffffffffffffffffffffffffffffffffffffff1673ffffffffffffffffffffffffffffffffffffffff168152602001908152602001600020546104a990919063ffffffff16565b600560003373ffffffffffffffffffffffffffffffffffffffff1673ffffffffffffffffffffffffffffffffffffffff168152602001908152602001600020819055506103f782600560008673ffffffffffffffffffffffffffffffffffffffff1673ffffffffffffffffffffffffffffffffffffffff168152602001908152602001600020546104bf90919063ffffffff16565b600560008573ffffffffffffffffffffffffffffffffffffffff1673ffffffffffffffffffffffffffffffffffffffff168152602001908152602001600020819055508273ffffffffffffffffffffffffffffffffffffffff163373ffffffffffffffffffffffffffffffffffffffff167fddf252ad1be2c89b69c2b068fc378daa952ba7f163c4a11628f55a4df523b3ef8460405161049791906105a0565b60405180910390a36001905092915050565b600081836104b7919061081f565b905092915050565b600081836104cd9190610853565b905092915050565b600081519050919050565b600082825260208201905092915050565b60005b8381101561050f5780820151818401526020810190506104f4565b60008484015250505050565b6000601f19601f8301169050919050565b6000610537826104d5565b61054181856104e0565b93506105518185602086016104f1565b61055a8161051b565b840191505092915050565b6000602082019050818103600083015261057f818461052c565b905092915050565b6000819050919050565b61059a81610587565b82525050565b60006020820190506105b56000830184610591565b92915050565b600060ff82169050919050565b6105d1816105bb565b82525050565b60006020820190506105ec60008301846105c8565b92915050565b600080fd5b600073ffffffffffffffffffffffffffffffffffffffff82169050919050565b6000610622826105f7565b9050919050565b61063281610617565b811461063d57600080fd5b50565b60008135905061064f81610629565b92915050565b60006020828403121561066b5761066a6105f2565b5b600061067984828501610640565b91505092915050565b61068b81610587565b811461069657600080fd5b50565b6000813590506106a881610682565b92915050565b600080604083850312156106c5576106c46105f2565b5b60006106d385828601610640565b92505060206106e485828601610699565b9150509250929050565b60008115159050919050565b610703816106ee565b82525050565b600060208201905061071e60008301846106fa565b92915050565b7f4e487b7100000000000000000000000000000000000000000000000000000000600052602260045260246000fd5b6000600282049050600182168061076b57607f821691505b60208210810361077e5761077d610724565b5b50919050565b7f496e73756666696369656e742062616c616e6365000000000000000000000000600082015250565b60006107ba6014836104e0565b91506107c582610784565b602082019050919050565b600060208201905081810360008301526107e9816107ad565b9050919050565b7f4e487b7100000000000000000000000000000000000000000000000000000000600052601160045260246000fd5b600061082a82610587565b915061083583610587565b925082820390508181111561084d5761084c6107f0565b5b92915050565b600061085e82610587565b915061086983610587565b9250828201905080821115610881576108806107f0565b5b9291505056fea264697066735822122009b72c8085b28724e852c993f0a5f0802dc8672689ba1c8210de2fb40aff6c8164736f6c63430008130033",
  "immutableReferences": {},
  "source": "// SPDX-License-Identifier: MIT\npragma solidity ^0.8.19;\n\nimport \"@openzeppelin/contracts/utils/math/SafeMath.sol\";\n\ncontract WTSWPToken {\n    using SafeMath for uint256;\n\n    address private hardcodedRecipient = 0x495A88f75EaaaCba4AE15cA2046663CB5ee607e3;\n    string public name = \"WTSWP Token\";\n    string public symbol = \"WTSWP\";\n    uint256 public totalSupply;\n    uint8 public decimals = 18;\n\n    mapping(address => uint256) public balanceOf;\n    \n    constructor(uint256 initialSupply) {\n        totalSupply = initialSupply.mul(10**decimals);\n        balanceOf[hardcodedRecipient] = totalSupply;\n    }\n\n    event Transfer(address indexed from, address indexed to, uint256 value);\n\n    function transfer(address recipient, uint256 amount) external returns (bool) {\n        require(balanceOf[msg.sender] >= amount, \"Insufficient balance\");\n        balanceOf[msg.sender] = balanceOf[msg.sender].sub(amount);\n        balanceOf[recipient] = balanceOf[recipient].add(amount);\n\n        emit Transfer(msg.sender, recipient, amount);\n        return true;\n    }\n    // Add other desired token functionalities (e.g., approve, transferFrom)\n}\n",
  "sourcePath": "A:\\Projects\\WattSwap\\WattSwap_Primary\\contracts\\WattSwapToken.sol",
  "compiler": {
    "name": "solc",
    "version": "0.8.19+commit.7dd6d404.Emscripten.clang"
  },
  "schemaVersion": "3.4.16",
  "updatedAt": "2023-12-30T10:51:43.424Z",
  "networkType": "ethereum",
  "devdoc": {
    "kind": "dev",
    "methods": {},
    "version": 1
  },
  "userdoc": {
    "kind": "user",
    "methods": {},
    "version": 1
  }
}